:100000000C9489040C94B1040C94B1040C94B104C4
:100010000C94B1040C94B1040C94B1040C94B1048C
:100020000C94B1040C94B1040C94B1040C94B1047C
:100030000C94B1040C94B1040C94B1040C94B1046C
:100040000C94670A0C94B1040C94010F0C94DB0E11
:100050000C94B1040C94B1040C94B1040C94B1044C
:100060000C94BA0C0C94B10400000000230026008C
:10007000290000000000240027002A0000000000E2
:10008000250028002B0004040404040404040202D4
:100090000202020203030303030301020408102007
:1000A0004080010204081020010204081020000012
:1000B0000008000201000003040700000000000027
:1000C00000005F00040305050405061614FDFC0E80
:1000D000FC0EFE028805D70834200600602C0121A2
:1000E00011C4253443E2E0C0424499C44184040071
:1000F0002209A5644641821702231F8B616449428D
:100100004C424C42E660E26046424C42E660E260AD
:1001100046424C424C420800242349A65B2930AC9D
:100120004622A224A224A422C8E620E420C628A2B3
:1001300024A422A42242A62C300800252CEEE17B28
:1001400065464A64224826444826244A26424A24D0
:10015000DD8870CC98884854884C90884C508C4CE2
:100160008C92A0A8A950002623D0258C8B564452EF
:100170004652467242B478A6C64668822468A66A89
:10018000886A8AA6E620E46604002708A2642EE1B5
:100190006000281205A233474464446444466F66F5
:1001A00064668404291105A2334148664666469F69
:1001B0008C888CA8012A12E7E0456524C94484C8CC
:1001C0008844C4489211002B0E4A215C4950A383F5
:1001D0000323418D002C0CE4602B43E22062241B9E
:1001E000002D0865E034E141002E0B84202C43E211
:1001F000204202002F10C6213C495190A2204541C7
:100200008A8214013014C9255C676862444662C65C
:10021000BF99901199189A01310CC7295C4768A4BD
:1002200068FFC9013217C9255C87466462C6664209
:10023000666C6A6C6A4A4CD5C141013319C9255CA8
:1002400087466462C66642664C68526E42C6CD847A
:10025000C84C09003419C9255C2F4E6C8A51C44C16
:10026000C848CC48CC44D0C481D4D854013517C92F
:10027000255CE320E22430A14DCCDCD8848C9B09A2
:10028000919912003618C9255CA764858C8DC4D855
:10029000C408C51A6F266426468466003712C9252D
:1002A0005CE141D994989C989CD8AAB18D003818EB
:1002B000C9255C674846428AAAE842C4C824E4A823
:1002C0008AAA46860600391AC9255C6748646246D0
:1002D00062C69B89099289B109191B8991911A00FB
:1002E0003A0F24253443E220424CE2204202003BF4
:1002F0001084653343E220424CE22062241B003C20
:100300000C4A215C518C8833420E053D0CC9A45C1B
:10031000E1013DCCC101013E0C4A215C41906744A2
:100320009C09023F14C92154A744E4C66642664CA6
:10033000F7106254644200402ACF2184EB6C4C4693
:100340003244A644424409898C08898C08858C88EB
:10035000841A110925132222134492316362074142
:1003600000411ECE1D742F5A76963262324430669A
:100370002E662C6AEA40286C286E446E82AA0042DF
:1003800022CC2174E160668664686468646864668F
:10039000E62068C9D4C4D4C4D4C4D4C4D0C4810CA5
:1003A000004318CC2174A92484C598C45821CB0DCE
:1003B00023E622C66268A46A004423CE2184E16059
:1003C0006A88666C646C646E626E626E626E626E87
:1003D000626E626C646C6488E46008004523CB2123
:1003E0006CE1806268624A6226246226246244E8E4
:1003F00068446826682624622C624A62E8E0004667
:100400001FCB216CE1806268624A62262462262446
:100410006244E868446826682668709D1500472095
:10042000CD217CA9248684644C644C6230623062A5
:1004300074D541D8C8D4C8D40C0955490400482201
:10044000CE2184A1A8626C646C646C646C646CE4FE
:10045000A0646C646C646C646C646C646CA2A800D2
:10046000490BC5254CA16264FF8B024A15CA1D6465
:10047000AB6C6E9FC84C904C904C088D880C110151
:100480004B20CE2184A1A6644A68486A466C446E1B
:1004900042D0F06E826C846A866888668AA2C60042
:1004A0004C11CA2164A16C6E7F1531153124317352
:1004B000604D33D1219CC1AC848CA68A266228620F
:1004C00026642662266426622664246426662264E4
:1004D000266622642686662668662668666428681C
:1004E000A226A6004E25CE218481AA826A862A8869
:1004F0002AA828054D500849500C45505051145118
:100500001451D8CC98485908004F18CE2184C98C72
:1005100084666C646C62D00F27C646C66648C88C79
:1005200000501ACC2174E140688664886288628831
:1005300062886286E420687287750051204E2283AB
:10054000C98C84666C646C62D02F6826464644660B
:10055000246628CA8C8527224B47005223CD21844C
:10056000E1806688646A646A646A6468E6206A6630
:1005700068666886666866686668C26802005319BD
:10058000CA2164872264C590C4540499D5959955AD
:1005900059D5C9444809005413CB216CE1C064CD3E
:1005A0008CCC8CCC4CD0E07E57035522CE2184A13C
:1005B000A8626C642E662E662E662E662E662E66E9
:1005C0002E662E662E662E6848CE0800561FCF1D5A
:1005D00074C1A8826C662E882A6C2A6C2A6E2670DA
:1005E000267222742276783A3C0E00572FD41D9C36
:1005F000C1C2A482866866682A8886266C86266CB4
:1006000086268C22822270226422702264229086A6
:1006100074687468362C382C0C00581DCF218CC39C
:10062000A486688A466E44D09498B4D450844C68AA
:100630006A88668CA2C8005917CD217CC186824A7F
:10064000662A88466A268C22B072740F6F005A1A86
:10065000CC216CE14158D9441845141DE1201DAB53
:1006600008B288B1B28383005B0A04A633C144FF99
:100670004F085C14C8214C414C4E4C4E4C4E4C4ED5
:100680004C4E4C4E4C005D0A04A2338144FF4F0C8B
:100690005E0F08A14D474C8A8846440B2122015F1A
:1006A0000849604BE10101600985A43E4166910063
:1006B00061142A215CE3646642688C6662CDC4CC16
:1006C000C4089301621ACC1D6481722F886846A603
:1006D00026A626A626A626A6266846246A00631015
:1006E000292154A764C4A86CAB8819191200641A94
:1006F000CC216C8F724714233314531353135313A9
:10070000531353233344140465142A215C8768640B
:1007100062C8E8E0406E2C6248A604006610C8215A
:100720003C87466257433653FBA80600671FEB2100
:100730005B5370C46864464846486664C848F22003
:10074000E820426A424C6248E606006819CC216CF7
:1007500081722F6A48488646864686468646864681
:1007600086264A0A690BC5213463642DC97E516A05
:1007700010471633697B10A2FD9185850809006B2F
:1007800018CC216C81724F4A668446C226C4AE26BC
:1007900088466866282A0C6C0AC521348164FF17D4
:1007A000056D1A3321A481A2C286A4846468C9D0CD
:1007B00092A125434B86960CAD28696E182C216CAE
:1007C00081A2868464686468646864686468646834
:1007D000A2A4006F102B2164A7686662CA57133366
:1007E000433500701CAC1D6361848866646A626A6C
:1007F000626A626A626A826664826872611D0071FE
:100800001AAC216387446486626A626A626A626AB9
:10081000626A6486886272C302721028214C814227
:1008200084426244626A4735007314292154852248
:1008300044466228C2E8CAAA4822A204007412A749
:100840002144272C4A68C664684F22464228007516
:10085000172C216CA18464686468646864686468A7
:100860006468844D050176152A1D4CA164622864D4
:1008700028662468248A8C4E500800771E301D7C20
:10088000A1A2646266286466286684246884248A37
:10089000848C844E485048080078142B2164C1820F
:1008A0008D0C8554DD5C95048D0C058501791DAB9F
:1008B0002163A166622A642A662668266A226C225F
:1008C0006E70324A266A226E0E007A0F292154E198
:1008D00080A686889B22A203027B0F05A233474491
:1008E00064278A64467623247C07C2315CE1077D55
:1008F0001005A233414866641B2111913D51037ECE
:100900000C6A246565C541C4C808000000000000E9
:10091000F81411241FBECFEFD8E0DEBFCDBF24E016
:10092000AEECB1E001C01D92A236B207E1F711E0D2
:10093000A0E0B1E0EEEDF0E302C005900D92AE3C18
:10094000B107D9F714E0C9E8D4E004C02197FE014B
:100950000E944516C838D107C9F70E94A6110C9409
:100960006D180C94000080E00895DC011A96ED915A
:10097000FC911B9720E030E00994DC011696ED9184
:10098000FC91179720E030E040E069E10994DC0138
:100990001696ED91FC91179720E030E040E068E179
:1009A00009949A01DC011696ED91FC911797462F58
:1009B00067E10994EF92FF920F931F93CF93DF9318
:1009C0001F92CDB7DEB77C018B01D8016C916731E6
:1009D000E1F078F46531A0F1F80141814983D70154
:1009E0001696ED91FC91179720E030E0C70109952C
:1009F00024C06A31A8F06E3F19F5F801418149839E
:100A000069E2C7010E94B50418C0F8018181898399
:100A1000AE014F5F5F4F61E0C7010E94D1040DC07E
:100A20000F5F1F4FD7011696ED91FC91179720E0AD
:100A300030E040E0C7010995C8CF0E5F1F4FC5CF1A
:100A40000F90DF91CF911F910F91FF90EF9008953C
:100A5000462FDC011696ED91FC91179720E030E0CF
:100A600066E10994462FDC011696ED91FC911797EB
:100A700020E030E065E10994EF92FF920F931F931D
:100A8000CF93DF93EC01142F79016D30A9F118F4A5
:100A90006B3039F15FC06E3009F441C06F3009F03E
:100AA00059C00E94C704F70183810889F8E08F9F2D
:100AB000000D112460E4CE010E943205602F629582
:100AC0006F706061CE010E943205602F6F70CE01A1
:100AD0000E942805F7016481606BCE010E94280501
:100AE00029C0411103C06CE171E002C067E171E00F
:100AF000CE010E94DA0471C0411108C060E171E0CA
:100B00000E94DA04E881F981828907C069E071E016
:100B10000E94DA04E881F9818389888B5EC00E9493
:100B2000C70461E8CE010E943205612FCE010E9408
:100B300028050CC0F701408151816281660F660F64
:100B4000660FCE010E94D1041150A1F7CE010E9480
:100B5000BD0443C0693031F486E591E09983888310
:100B600082E0DBCF6A30B9F5EA85FB8520E030E032
:100B700040E068E2CE010995EE81FF8120E030E09F
:100B800040E064E1CE01099541E06BE4CE010E94B2
:100B9000B504E881F981448169E2CE010E94B5047F
:100BA00040E06BE4CE010E94B504E881F981448104
:100BB00069E2CE010E94B50441E06BE4CE010E94DF
:100BC000B504E881F981458169E2CE010E94B5044E
:100BD00061E271E08DCF80E001C081E0DF91CF91D3
:100BE0001F910F91FF90EF900895462FDC0118960A
:100BF000ED91FC91199720E030E060E209946623C2
:100C000029F06A3019F0862F90E008958FEF9FEF5A
:100C100008950F93DC01D8965C91D897D9963C91B2
:100C2000213089F4631708F050C0B8EF5B9F400D86
:100C30001124FC0122AD421708F047C001A8F2A917
:100C4000E02D21E041C0023019F4621B6F5F04C047
:100C5000033011F4421B4F5FF8EF5F9F400D1124EA
:100C6000DC01DA965C91702F717000FD14C045179D
:100C700060F5260F261730F4631718F42FEF230FB3
:100C800003C060E0631708F52223F9F0321708F477
:100C9000232F261B13C06317C0F4240F241730F42E
:100CA000451718F42FEF250F03C040E0451768F4EF
:100CB000222359F0521708F4252F241BDC01D1966A
:100CC000ED91FC91D297072F09950F910895CF933D
:100CD000DF93FC0127A9822F880F880F880F82AF2E
:100CE000A081B18150968C915097803208F08FE1AD
:100CF000880F880F880F81AF30AD932F990F990F10
:100D0000990F93AF51966C915197432F50E0420F3A
:100D1000511DC62FD0E0C417D50714F4262F231B6E
:100D200094AF492F38E0239F400D1124242F45AF65
:100D300030EF36AF54964D915C915597413F510538
:100D400008F446AF56963C9137AFDF01A05CBF4F29
:100D50001C9211968C9311969C93ED5BFF4F208310
:100D6000DF91CF910895EF92FF920F931F93CF934E
:100D7000DF93DC01942F9770E1E0F0E0092E01C0D1
:100D8000EE0F0A94EAF71E2FED01C059DF4F88815C
:100D9000823028F47E2F813019F410E001C070E019
:100DA00050E0487FD596ED90FC90D697ED91FC9160
:100DB00011978089849FF001859FF00D1124E60F23
:100DC000F11DEE0DFF1D01110CC02E0F8081872B30
:100DD000812781932E13FACF1DC0770F110F222385
:100DE000C9F03081372B312730839F5F97702150B6
:100DF0009111F3CFD9968C91D997E80FF11D888185
:100E0000823020F4813021F011E002C011E0E7CF00
:100E100071E0E5CFDF91CF911F910F91FF90EF909F
:100E2000089580E00895213039F020F0223031F427
:100E3000861B0895860F0895841B0895840F0895D6
:100E4000213039F020F0223031F4841B0895840FD2
:100E50000895860F0895861B08955F926F927F9282
:100E60008F929F92AF92BF92CF92DF92EF92FF92BA
:100E70000F931F93CF93DF936C01F62E642EEC013A
:100E8000C85BDF4F1C81BD804C0180E7880E911C40
:100E9000EE80E11AAE2CFE1408F4AF2C5B800C85BA
:100EA000202F4B2D612F8A810E941307782E202F2F
:100EB0004B2D612F852D0E942007482F662021F0A1
:100EC0009A85D4019C9306C09985911111C09B8588
:100ED000F4019083AA2061F0D601D396ED91FC91A4
:100EE000D4970280F381E02D2A2D672DC601099544
:100EF000FE1420F0FE18B39410E0CACF1F0D1C831F
:100F0000BD82DF91CF911F910F91FF90EF90DF9005
:100F1000CF90BF90AF909F908F907F906F905F9099
:100F20000895DC0118964C911897ED91FC9111975A
:100F3000249130E0042E02C0359527950A94E2F7FB
:100F4000862F840F883010F4E22F0EC03196119650
:100F5000FC93EE939491E92F98E0941B01C0EE0F5F
:100F60009A95EAF7E22B885018968C9381E090E0EE
:100F700001C0880F6A95EAF781508E230895BF92C9
:100F8000CF92DF92EF92FF920F931F93CF93DF9355
:100F900000D000D01F92CDB7DEB78C01DC01D79610
:100FA000BC90D797D896DC90D897ED91FC91C188EA
:100FB000E12CF12CD801ED91FC9111978089D59607
:100FC0004D915C91D6971C829D2D9E0D9D838B83A8
:100FD000B8E08B9FC00111248E9D90018F9D300D34
:100FE0009E9D300D1124CA01820F931F9A8389831D
:100FF000D8011496ED91FC9115979E012F5F3F4FFC
:1010000041E06FE0C801099581E08E0D8B1538F441
:10101000BFEFEB1AFB0A8D2D8E0D8C1558F20F9039
:101020000F900F900F900F90DF91CF911F910F9124
:10103000FF90EF90DF90CF90BF90089585ED809363
:10104000BC008091BC0084FDFCCF10923B0208954F
:1010500040911502262F30E0240F311D2132310539
:10106000DCF420913B022430C9F4FC0180E090E0E4
:10107000861758F4309115022191DC01AD50BE4F16
:10108000A30FB11D2C930196F3CF80911502680F29
:101090006093150280E0089581E0089582E008954C
:1010A00008958FEF9FEF08958FEF9FEF0895809140
:1010B000F20190E09195819591090895CF93DF9386
:1010C00000D0CDB7DEB7CB01642F49835A830E948D
:1010D00028084981842F5A81952F0F900F90DF9116
:1010E000CF910895CF93DF931F92CDB7DEB7698379
:1010F00061E0CE0101960E94280881E090E00F9007
:10110000DF91CF910895CF92DF92EF92FF920F93EC
:101110001F93CF93DF936C01EB017B01E40EF51E6F
:1011200000E010E0CE15DF0561F06991D601ED9188
:10113000FC910190F081E02DC6010995080F191F5F
:10114000F1CFC801DF91CF911F910F91FF90EF90E8
:10115000DF90CF900895CF93DF931F92CDB7DEB786
:101160006983BE016F5F7F4F0E94D8100F90DF919F
:10117000CF910895EF92FF920F931F93CF93DF9338
:1011800000D0CDB7DEB77C01162F042F663159F0A1
:1011900028F46431C9F0653131F027C0673169F056
:1011A0006A3118F511C060E0C7010E94F505602F93
:1011B000C7010E94AB0881E019C061E029833A832E
:1011C0000E94F5053A812981D7011896ED91FC918D
:1011D0001997402F612FC7010F900F90DF91CF918A
:1011E0001F910F91FF90EF90099480E00F900F9066
:1011F000DF91CF911F910F91FF90EF900895FC0127
:10120000A081B18150969C9147A9949FA00111247F
:1012100083E0440F551F8A95E1F760E070E085A9EF
:1012200096A90C945018CF92DF92EF92FF92CF9331
:10123000DF93EC01683109F456C038F46431C9F029
:10124000673109F0A6C0F9010DC0693109F48EC0FB
:10125000603209F09EC06AE497C00DB407FEFDCF6E
:101260008EB54150442309F492C081918EBD000097
:10127000F4CFE881F981418169E40E94B504CFB7D8
:10128000F89480916102811127C0E0E9F0E0849137
:10129000E4EAF0E09491E82FF0E0EE0FFF1FEE5843
:1012A000FF4FA591B491EC91E92321F461E08AE02C
:1012B0000E945C0F61E08AE00E948C0F8CB5806117
:1012C0008CBD8CB580648CBD61E08DE00E948C0F7C
:1012D00061E08BE00E948C0F809161028F5F8093B0
:1012E0006102CFBF54C0A881B9811C96EC911C97B4
:1012F000E150E33028F4F0E0EA5FFE4F808101C066
:1013000080E01896CD90DD90ED90FC901B9720E04A
:1013100040E052E16AE770E0C416D506E606F7063B
:1013200040F476956795579547952F5F2630A1F73E
:1013300027E091E092278C708065292F2695822BDB
:1013400091708CBD9DBDE881F981408169E4CE0139
:101350000E94B504A881B981EA85FB8520E030E0D0
:1013600012964C916CE2CE01099511C0A881B98109
:10137000EA85FB8520E030E013964C916CE20995FC
:10138000E881F981418169E4CE010E94B50481E0E0
:1013900001C080E0DF91CF91FF90EF90DF90CF9080
:1013A00008950F931F93CF93DF93EC01862F642F43
:1013B0008C3270F48A3208F076C0883289F0893233
:1013C00009F042C070E080E090E00E94C80F6BC05E
:1013D0008D32D1F0C8F194EB980F923020F134C0E7
:1013E0008E01055E1F4FD0E0F80181918F018F3F84
:1013F00039F0D03110F461E001C062E00E948C0F3E
:10140000DF5FD63189F74FC0433018F082E090E0BB
:1014100002C085E090E0880F991F880F991F0597FB
:101420000197F1F740C08F73C80FD11D411107C05C
:1014300061E08B8D0E948C0F60E08B8D11C062E0AB
:101440008B8D0E948C0F2FC0803478F18F73FE013A
:10145000E80FF11D238D2F3F31F1803120F4822FD1
:101460000E945C0F20C030E0F901E255FF4F8491EB
:10147000F901E656FF4F0491F901EA57FF4F149125
:10148000112379F081110E94330FE12FF0E0EE0F6C
:10149000FF1FE859FF4FA591B491EC91E02381E043
:1014A00009F480E08E8B81E001C080E0DF91CF9174
:1014B0001F910F9108952FB7F89460916302709176
:1014C000640280916502909166022FBF08951F9279
:1014D0000F920FB60F9211242F933F938F939F93E8
:1014E000AF93BF938091630290916402A0916502D3
:1014F000B09166023091620223E0230F2D3720F471
:101500000196A11DB11D05C026E8230F0296A11D5D
:10151000B11D209362028093630290936402A093B2
:101520006502B09366028091670290916802A09173
:101530006902B0916A020196A11DB11D80936702F4
:1015400090936802A0936902B0936A02BF91AF9131
:101550009F918F913F912F910F900FBE0F901F90F1
:1015600018954F925F926F927F928F929F92AF9257
:10157000BF92CF92DF92EF92FF920F931F93CF9380
:10158000DF931F92CDB7DEB72C01E62EF42E890132
:10159000FC01EC5AFF4F80818130C9F070F082303D
:1015A00001F1833039F5F201EA5BFF4F0190F081E0
:1015B000E02DC2010995E80E1DC0F201EA5BFF4F64
:1015C0000190F081E02DC2010995F80E13C0F201DF
:1015D000EA5BFF4F0190F081E02DC2010995E81A06
:1015E00009C0F201EA5BFF4F0190F081E02DC201DA
:1015F0000995F81AF201E65BFF4FE0823196F0821E
:1016000037978081918147960F3F110509F020F5AA
:101610000136110510F0B49606C00134110538F0FA
:10162000F201EA59FF4F20813181820F931F9C0103
:101630002F5F3F4FF9014491442309F4DAC0FC01C4
:10164000449150E04017510711F4029623C0F9016C
:101650002491820F911DEBCFF201E659FF4F2081BB
:101660003181820F931FFC01449150E0542F442795
:101670003196E4914E2B4115510509F4BAC040173B
:10168000510711F4039606C0FC013296E4918E0FC7
:10169000911DE9CF009709F4ACC08201085B1F4F90
:1016A000F80191838083108671966081C8010E9441
:1016B0009107F801868372966081C8010E949107A4
:1016C000B82EF80187836201F0E7CF0ED11CF60136
:1016D0009081F801928781E0911180E0F801838781
:1016E000F201E55AFF4FF0806F2DC8010E9491076B
:1016F0009FEF9F0DEE24E394F12C970101C0220F80
:101700009A95EAF7782E721AF201E45AFF4FA080F8
:101710006A2DC8010E949107AA94470101C0880C54
:10172000AA94EAF76B2C680EF201E35AFF4FA080EF
:101730006A2DC8010E949107AA9401C0EE0CAA94D8
:10174000EAF7A82EAE18F801F6801F140CF090C02E
:1017500094858618292F482D672D828199830E94B0
:101760001307E82EF80182839981292F482D672DD0
:1017700083810E942007382FF8018383998191305B
:1017800091F060F09230B1F09330F9F44E2D4B0DA2
:101790008F1991E0930F31E0380F19C04E2D4F0D86
:1017A000982F9B0D14C0292F2B1941E04E0D982F17
:1017B0009F0D09C081E0282F2F1941E04E0D8B1994
:1017C00091E0930F380FE20E02C0982F4E2DF201D8
:1017D000EE5BFF4F808131962081321718F4891714
:1017E00020F409C0891708F043C0931708F040C0DF
:1017F00002C0A12C3DC0F201E05CFF4F8081319618
:101800009081E91618F4841718F404C0841780F541
:101810004E1570F5F801148215827201F7E5EF0E8E
:10182000F11C420188E5880E911CF7016081C80116
:101830000E949107682EF4016081C8010E949107FF
:10184000782E40E0662DC2010E942D0741E0672DF1
:10185000C2010E942D0761E0C8010E949107811119
:10186000F0CFF80185818B1504F38285F601808322
:101870008A2D0F90DF91CF911F910F91FF90EF90E4
:10188000DF90CF90BF90AF909F908F907F906F90A0
:101890005F904F9008950F931F93CF93DF93EC01C8
:1018A0008C010C5F1F4FFC01EA58FF4F0190F08143
:1018B000E02DC80109958E3F2FEF920780F4FE01BD
:1018C000E758FF4FC858DF4F9C0140816881C8012D
:1018D0000E94B10A288190E0820F911D888381E0E7
:1018E00090E0DF91CF911F910F9108951F93CF93B7
:1018F000DF93EC010E94BF0718AD8FA9180FE88194
:10190000F9818189181750F0EC81FD8120E030E0E9
:1019100040E060E1CE01099580E012C0FE01EF5881
:10192000FF4F8081882319F0CE010E94FF0818AF75
:10193000EBA9FCA90190F081E02DCE01099581E091
:10194000DF91CF911F910895CF93DF93EC01FC01BC
:10195000EF58FF4F8081882319F0CE010E94FF08C5
:1019600018AEEBA9FCA90190F081E02DCE01DF912A
:10197000CF9109941F920F920FB60F9211242F93BB
:101980003F934F935F936F937F938F939F93AF9307
:10199000BF93EF93FF938091B900887F803609F45D
:1019A0009CC068F5883209F45BC090F4803109F47A
:1019B00054C038F4882309F4F6C0883009F44DC0C7
:1019C000F6C0883109F44CC0803209F45DC0EFC024
:1019D000803409F468C048F4803309F455C0883372
:1019E00009F0E5C080933A02D8C0803509F44FC0B1
:1019F000883509F45DC0883409F0D9C0D6C088396B
:101A000009F4C7C0A8F4883709F467C038F48836E9
:101A100009F463C0803709F460C0C9C0883809F48C
:101A2000B8C0803909F45FC0803809F0C0C05BC01D
:101A3000803B09F486C038F4803A09F466C0883ADD
:101A400009F47FC0B4C0803C09F4A7C0883C09F405
:101A5000A4C0883B09F48AC0AAC08091600210C06B
:101A600090915F0280915E02981770F5E0915F029D
:101A700081E08E0F80935F02F0E0E25CFD4F808199
:101A80008093BB0085EC86C080933A028EC0E091C3
:101A90005F0281E08E0F80935F028091BB00F0E0D7
:101AA000E25CFD4F808390915F0280915E026EC088
:101AB000E0915F0281E08E0F80935F028091BB0016
:101AC000F0E0E25CFD4F808380913D0281116DC0AA
:101AD00081E080933C0284EA61C083E080933B0212
:101AE00010923902CFCF80913902803208F051C074
:101AF000E091390281E08E0F809339028091BB0022
:101B0000F0E0E75EFD4F8083BDCF85EC8093BC00A5
:101B100010923B0280913902803230F4E091390218
:101B2000F0E0E75EFD4F10826091390270E0E091D5
:101B30001702F091180289E192E00995109239029A
:101B400036C084E080933B02109216021092150278
:101B5000E0911302F0911402099580911502811110
:101B600005C081E0809315021092F301E091160206
:101B700081E08E0F80931602F0E0ED50FE4F8081E1
:101B80008093BB009091160280911502981708F47B
:101B900079CF85E88093BC000AC085EC8093BC00B7
:101BA00010923B0204C010923A020E941E08FF915C
:101BB000EF91BF91AF919F918F917F916F915F91C5
:101BC0004F913F912F910F900FBE0F901F9018953E
:101BD000FC01918D828D981761F0828DDF01A80F35
:101BE000B11D5D968C91928D9F5F9F73928F90E057
:101BF00008958FEF9FEF0895FC01918D828D9817C6
:101C000031F0828DE80FF11D858D90E008958FEF02
:101C10009FEF0895FC01918D228D892F90E0805CCB
:101C20009F4F821B91098F739927089583E792E054
:101C30000E940A0E21E0892B09F420E0822F0895EA
:101C4000FC01848DDF01A80FB11DA35ABF4F2C9159
:101C5000848D90E001968F739927848FA689B78928
:101C60002C93A089B1898C9180648C93938D848D01
:101C7000981306C00288F389E02D80818F7D8083D0
:101C80000895EF92FF920F931F93CF93DF93EC0190
:101C900081E0888F9B8D8C8D981305C0E889F98928
:101CA000808185FD24C0F62E0B8D10E00F5F1F4F45
:101CB0000F731127E02E8C8DE8120CC00FB607FCB5
:101CC000FACFE889F989808185FFF5CFCE010E949E
:101CD000200EF1CF8B8DFE01E80FF11DE35AFF4F6F
:101CE000F0820B8FEA89FB898081806207C0EE89D0
:101CF000FF896083E889F98980818064808381E03D
:101D000090E0DF91CF911F910F91FF90EF90089598
:101D1000CF93DF93EC01888D8823C9F0EA89FB8992
:101D2000808185FD05C0A889B9898C9186FD0FC089
:101D30000FB607FCF5CF808185FFF2CFA889B9895E
:101D40008C9185FFEDCFCE010E94200EE7CFDF9171
:101D5000CF91089580E090E0892B29F00E94160E23
:101D600081110C94000008953FB7F89480916702A8
:101D700090916802A0916902B0916A0226B5A89B71
:101D800005C02F3F19F00196A11DB11D3FBFBA2F0D
:101D9000A92F982F8827820F911DA11DB11DBC016D
:101DA000CD0142E0660F771F881F991F4A95D1F732
:101DB00008950E9442181F920F920FB60F9211249D
:101DC0002F933F934F935F936F937F938F939F9343
:101DD000AF93BF93EF93FF9383E792E00E94200EAF
:101DE000FF91EF91BF91AF919F918F917F916F91F3
:101DF0005F914F913F912F910F900FBE0F901F90C9
:101E000018951F920F920FB60F9211242F938F9354
:101E10009F93EF93FF93E0918302F091840280817E
:101E2000E0918902F0918A0282FD12C09081809136
:101E30008C028F5F8F7320918D02821751F0E09199
:101E40008C02F0E0ED58FD4F958F80938C0201C01D
:101E50008081FF91EF919F918F912F910F900FBEF5
:101E60000F901F901895833081F028F4813099F0FD
:101E70008230A1F008958730A9F08830B9F084301D
:101E8000D1F4809180008F7D03C0809180008F7796
:101E900080938000089584B58F7702C084B58F7DCC
:101EA00084BD08958091B0008F7703C08091B00009
:101EB0008F7D8093B00008951F93CF93DF93282FD9
:101EC00030E0F901E255FF4F8491F901E656FF4FEA
:101ED000D491F901EA57FF4FC491CC23C9F0162FD2
:101EE00081110E94330FEC2FF0E0EE0FFF1FE4583A
:101EF000FF4FA591B4918FB7F894111105C09C9133
:101F0000ED2FE095E92302C0EC91ED2BEC938FBF10
:101F1000DF91CF911F910895CF93DF9390E0FC0163
:101F2000E656FF4F2491FC01EA57FF4F8491882326
:101F300061F190E0880F991FFC01EE58FF4FC591A9
:101F4000D491FC01E458FF4FA591B491611109C0EF
:101F50009FB7F8948881209582238883EC912E2363
:101F60000BC0623061F49FB7F8943881822F80955E
:101F700083238883EC912E2B2C939FBF06C08FB7B1
:101F8000F894E8812E2B28838FBFDF91CF9108959D
:101F90008F929F92AF92BF92CF92DF92EF92FF9279
:101FA0006B017C010E94B40E4B015C01C114D10491
:101FB000E104F104F1F00E94B40EDC01CB018819B8
:101FC0009909AA09BB09883E9340A105B10570F3A0
:101FD00021E0C21AD108E108F10888EE880E83E0FA
:101FE000981EA11CB11CC114D104E104F10419F71D
:101FF000DDCFFF90EF90DF90CF90BF90AF909F909C
:102000008F9008950895CF92DF92EF92FF920F93F1
:102010001F93CF93DF936C017A018B01C0E0D0E076
:10202000CE15DF0589F0D8016D918D01D601ED91B6
:10203000FC910190F081E02DC6010995892B11F4E6
:102040007E0102C02196ECCFC701DF91CF911F9195
:102050000F91FF90EF90DF90CF900895E3E7F2E0CB
:10206000A089B18982E08C93A485B5851C92A68550
:10207000B7858FEC8C93108EA489B58986E08C93FC
:10208000A289B3898C9180618C93A289B3898C9148
:1020900088608C93A289B3898C9180688C93028824
:1020A000F389E02D80818F7D80830895EF92FF92E8
:1020B0001F93CF93DF93109271037C0110E0D8E15E
:1020C000C0E0F70161917F01E0915E03F0915F0351
:1020D0008CE593E009959C010196E1F02E3F8FEF8E
:1020E000380779F34D2F6C2F8CE593E00E94B10AED
:1020F0002091B003213049F030F0223041F02330FC
:1021000039F4D81B05C0C80F03C0D80F01C0C81BC5
:10211000180FD7CF812FDF91CF911F91FF90EF90B4
:1021200008950F931F930E945B0A60937B02709344
:102130007C0280937D0290937E02E0917302F09185
:1021400074020680F781E02D83E792E0099597FFFE
:102150001FC00E945B0A00917B0210917C022091BB
:102160007D0230917E02DC01CB01801B910BA20B22
:10217000B30B00917702109178022091790230918F
:102180007A0280179107A207B307B8F28FEF9FEF8B
:102190001F910F910895E82FF0E0EE53FF4F8491C7
:1021A00090E0982F88273196E4918E0F911D089525
:1021B0009B01DC011896ED91FC91199741E067E1D4
:1021C00009940F931F93CF93DF93EC01888199813A
:1021D000009729F02A813B812617370788F48B0165
:1021E0006F5F7F4F0E947817009761F09983888313
:1021F0001B830A832C813D81232B11F4FC01108267
:1022000081E001C080E0DF91CF911F910F9108958F
:10221000EF92FF920F931F93CF93DF93EC011982FC
:1022200018821B821A821D821C826115710549F178
:102230008B01FB0101900020E9F731977F01E61A3D
:10224000F70AB7010E94E1102881398181110DC080
:102250002115310519F0C9010E94E0161982188272
:102260001D821C821B821A820CC0FD82EC82B80186
:10227000C901DF91CF911F910F91FF90EF900C94C6
:102280005718DF91CF911F910F91FF90EF90089514
:102290006115710579F0FB0101900020E9F7319794
:1022A000AF01461B570BDC01ED91FC910280F381DD
:1022B000E02D099480E090E008954F925F926F9234
:1022C0007F92EF92FF920F931F93CF93DF93CDB73F
:1022D000DEB7A1970FB6F894DEBF0FBECDBF7C016D
:1022E000FA01CB0119A2223008F42AE08E010F5D19
:1022F0001F4F422E512C612C712CBF01A301920162
:102300000E94EC15F901CA01015011096A3014F458
:10231000605D01C0695CD8016C93232B242B252BB5
:1023200061F7B801C7010E944811A1960FB6F89451
:10233000DEBF0FBECDBFDF91CF911F910F91FF90F8
:10234000EF907F906F905F904F900895CF93DF93C1
:10235000CDB7DEB7CE55D1090FB6F894DEBF0FBEAC
:10236000CDBF789484B5826084BD84B5816084BD1E
:1023700085B5826085BD85B5816085BD80916E0023
:10238000816080936E001092810080918100826054
:102390008093810080918100816080938100809191
:1023A00080008160809380008091B1008460809380
:1023B000B1008091B00081608093B00080917A007C
:1023C000846080937A0080917A00826080937A00A2
:1023D00080917A00816080937A0080917A00806891
:1023E00080937A001092C10010925403109255030A
:1023F0001092560310925703109212031092130377
:10240000109214031092150368EB7BE080E090E0DB
:102410000E94C80F83E792E0909353038093520386
:102420000E942E100E945B0A6093120370931303A4
:1024300080931403909315036AE971E0809152032D
:10244000909153030E9448116AE070E080E090E0B0
:102450000E94C80F81E080932603E0916003F09111
:10246000610320E030E040E06AE08CE593E009950C
:102470008CE593E00E94A40C8CE593E00E94760C1E
:102480008111FACFE0916003F091610320E030E028
:1024900040E06BE08CE593E009950E942E1024EF5C
:1024A000422E55245394612C712C33ECA32E30E032
:1024B000B32E42EC842E40E0942E0E945B0A672BE0
:1024C000682B692B41F40E945B0A6230710581051B
:1024D000910508F40AC10E945B0A60936F02709331
:1024E0007002809371029093720200916B021091BE
:1024F0006C0220916D0230916E02601771078207A5
:10250000930740F460936B0270936C0280936D02AA
:1025100090936E0200916B0210916C0220916D02FB
:1025200030916E026B017C01C01AD10AE20AF30AF3
:10253000970186010A3F11052105310508F4D5C030
:1025400060936B0270936C0280936D0290936E02A5
:1025500040921E0350921F03609220037092210349
:102560001092220310922303109224031092250349
:102570008091160390911703A0911803B09119034D
:1025800080931A0390931B03A0931C03B0931D0325
:102590000E945B0A609316037093170380931803DD
:1025A000909319030E945B0A6093120370931303C4
:1025B00080931403909315030E945B0A6B017C01C6
:1025C0006CEA71E080915203909153030E9448118C
:1025D0002AE041E050E060E070E080915203909189
:1025E00053030E945D1163EB71E08091520390915F
:1025F00053030E9448112AE0B701A60180915203BB
:10260000909153030E945D1165EB71E0809152033C
:10261000909153030E9448118091160390911703E3
:10262000A0911803B0911903B701A601481B590BDB
:102630006A0B7B0B2AE080915203909153030E9416
:102640005D1165EB71E080915203909153030E94FC
:10265000481140911603509117036091180370912F
:10266000190380911A0390911B03A0911C03B09150
:102670001D03481B590B6A0B7B0B2AE08091520308
:10268000909153030E945D1167EB71E080915203BA
:10269000909153030E9448110E945B0AAB01BC0158
:1026A0002AE080915203909153030E945D110091A2
:1026B00052031091530369EB71E0C8010E94481165
:1026C00069EA71E0C8010E94481165E070E080E0AD
:1026D00090E00E94C80F0E945B0A609316037093FB
:1026E0001703809318039093190360EC71E0CE01F7
:1026F000895A9F4F0E9408118CE593E00E94A40C18
:1027000089EC282E80E0382E9AECE92E90E0F92E04
:102710006D960EAD1FAD6D970115110511F419825F
:1027200015C00F34110510F00FE410E069966EAD7E
:102730007FAD6997A801CE0101960E945E18E1E085
:10274000F0E0EC0FFD1FE00FF11F10828091A0035D
:102750009091A103825C904009F4A5C09092A103DE
:102760008092A003E2ECF0E084918093B103F50144
:1027700084918093B203E4ECF0E084918093B303FE
:10278000E5ECF0E084918093B403E6ECF0E0849112
:102790008093B503E7ECF0E084918093B603E8EC16
:1027A000F0E084918093B703F10184918093B803A2
:1027B000F70184918093B903EBECF0E0E491E093AE
:1027C000BA03ECECF0E0E491E093BB03EDECF0E055
:1027D000E491E093BC03EEECF0E0E491E093BD0300
:1027E000EFECF0E0E491E093BE03E0EDF0E0E49183
:1027F000E093BF03E1EDF0E0E491E093C003E2ED8C
:10280000F0E0E491E093C10381E10E94CB1090934A
:10281000C3038093C20383E10E94CB109093C5034E
:102820008093C40385E10E94CB109093C7038093EB
:10283000C6038091A0039091A103892BA1F18091FF
:10284000BE038093C9034091BF034093CA03909194
:10285000C803992341F1913069F49091C00389171D
:1028600014F49093C9038091C1038417E4F4809316
:10287000CA0319C03091BB032091BD03082E000C80
:10288000990B622F022E000C770B630F711D37FD21
:102890007A95861797071CF4320F3093C9032417D3
:1028A00014F42093CA038FEF95E090935F03809315
:1028B0005E03CE0101960E94561083E792E00E94CB
:1028C0000A0E892B09F485C06BEA71E0CE018F5A9C
:1028D0009F4F0E9408110E94911097FD2BC08A30D3
:1028E000910541F16E968FAF6E976F961FAE6F9701
:1028F00067960EAD1FAD67970F5F1F4FB801CE01F2
:102900008F5A9F4F0E94E110882329F363962EADC2
:102910003FAD639767968EAD9FAD6797BE01635AD3
:102920007F4F820F931F0E94571867961FAF0EAFFD
:102930006797D1CF69968EAD9FAD69970097F9F0F3
:1029400063966EAD7FAD639761157105B1F06B96BF
:102950004EAD5FAD6B9767962EAD3FAD6797421753
:10296000530758F00E94571867968EAD9FAD679732
:102970006D969FAF8EAF6D9722C00E94E016639652
:102980008EAD9FAD639769969FAF8EAF6997659641
:102990008EAD9FAD65976B969FAF8EAF6B97679629
:1029A0008EAD9FAD67976D969FAF8EAF6D97639617
:1029B0001FAE1EAE639765961FAE1EAE65976796F7
:1029C0001FAE1EAE679763968EAD9FAD63970E9454
:1029D000E0168CE593E00E94760C811199CE699601
:1029E0008EAD9FAD69970E94E0160E94AA0E65CD3C
:1029F000109276021092750288EE93E0A0E0B0E0AB
:102A00008093770290937802A0937902B0937A0230
:102A100022E731E0309374022093730225EC30E01A
:102A20003093800220937F0224EC30E030938202C6
:102A30002093810220EC30E03093840220938302C3
:102A400021EC30E0309386022093850222EC30E0C6
:102A5000309388022093870226EC30E030938A027C
:102A60002093890210928C0210928D0210928E0295
:102A700010928F02109216031092170310921803EF
:102A80001092190310921A0310921B0310921C0348
:102A900010921D0310921E0310921F031092200328
:102AA0001092210310922203109223031092240308
:102AB000109225031092D5031092D4038093D6036D
:102AC0009093D703A093D803B093D90382E891E001
:102AD0009093D3038093D20310925B0310925A0316
:102AE0008FEF95E09093CF038093CE031092D003A5
:102AF0001092D1031092710382E991E090935903EF
:102B00008093580310925D0310925C0310926D0342
:102B1000109270038FEF80936E0380937303E7E747
:102B2000F3E09FEF86E18E0F91938E13FDCF8CE340
:102B300095E090936103809360038AEB98E0909313
:102B400063038093620383E199E09093650380932C
:102B5000640381ED99E0909367038093660320E01E
:102B600030E040E069E08CE593E00E943C05109283
:102B7000A1031092A00383EB96E090938E038093C1
:102B80008D038EED93E0909392038093910381E007
:102B900080939303109294038093CC038093CD038E
:102BA00086E991E09093900380938F038CE593E006
:102BB0000E94670681E197E09093A3038093A203AC
:102BC0001092B00389E08093800388E080938103B2
:102BD0008FEF809382030895A1E21A2EAA1BBB1BDC
:102BE000FD010DC0AA1FBB1FEE1FFF1FA217B307D9
:102BF000E407F50720F0A21BB30BE40BF50B661FEF
:102C0000771F881F991F1A9469F7609570958095B2
:102C100090959B01AC01BD01CF0108952F923F9289
:102C20004F925F926F927F928F929F92AF92BF92DC
:102C3000CF92DF92EF92FF920F931F93CF93DF9388
:102C4000CDB7DEB7CA1BDB0B0FB6F894DEBF0FBEE5
:102C5000CDBF09942A88398848885F846E847D8432
:102C60008C849B84AA84B984C884DF80EE80FD8034
:102C70000C811B81AA81B981CE0FD11D0FB6F894AA
:102C8000DEBF0FBECDBFED010895EE0FFF1F059013
:102C9000F491E02D0994CF93DF938230910510F4E5
:102CA00082E090E0E0916004F091610420E030E087
:102CB000C0E0D0E0309711F14081518148175907A9
:102CC000C0F04817590761F482819381209719F069
:102CD0009B838A832BC0909361048093600426C0F9
:102CE0002115310519F04217530718F49A01BE0156
:102CF000DF01EF010280F381E02DDCCF21153105EA
:102D000009F1281B390B2430310590F412968D916E
:102D10009C9113976115710521F0FB0193838283C8
:102D200004C09093610480936004FD01329644C016
:102D3000FD01E20FF31F81939193225031092D93EE
:102D40003C933AC020915E0430915F04232B41F400
:102D5000209102013091030130935F0420935E04BF
:102D600020910001309101012115310541F42DB769
:102D70003EB74091040150910501241B350BE091B1
:102D80005E04F0915F04E217F307A0F42E1B3F0BE3
:102D90002817390778F0AC014E5F5F4F24173507CD
:102DA00048F04E0F5F1F50935F0440935E04819381
:102DB000919302C0E0E0F0E0CF01DF91CF91089560
:102DC0000F931F93CF93DF93009709F48CC0FC01FE
:102DD00032971382128200916004109161040115F0
:102DE000110581F420813181820F931F20915E04AF
:102DF00030915F042817390779F5F0935F04E09369
:102E00005E0471C0D80140E050E0AE17BF0750F437
:102E100012962D913C911397AD012115310509F1C1
:102E2000D901F3CF9D01DA0133832283608171815F
:102E3000860F971F8217930769F4EC012881398167
:102E4000260F371F2E5F3F4F318320838A819B815E
:102E500093838283452B29F4F0936104E09360040B
:102E600042C01396FC93EE931297ED01499159914C
:102E70009E01240F351FE217F30771F480819181C1
:102E8000840F951F029611969C938E938281938155
:102E900013969C938E931297E0E0F0E0D80112967F
:102EA0008D919C911397009719F0F8018C01F6CF42
:102EB0008D919C9198012E5F3F4F820F931F20911F
:102EC0005E0430915F042817390769F4309729F4BC
:102ED000109261041092600402C013821282109357
:102EE0005F0400935E04DF91CF911F910F910895CD
:102EF000A0E0B0E0EEE7F7E10C941216EC010097C9
:102F000021F4CB010E944B16B8C0FC01E60FF71F5D
:102F10009C0122503109E217F30708F4ACC0D90133
:102F20000D911C91119706171707B0F00530110588
:102F300008F49FC0C80104978617970708F499C042
:102F400002501109061B170B019311936D937C938B
:102F5000CF010E94E0168DC05B01A01AB10A4C019E
:102F6000800E911EA0916004B091610440E050E099
:102F7000E12CF12C109709F44AC0A815B905D1F538
:102F80006D907C901197630182E0C80ED11CCA1429
:102F9000DB0480F1A3014A195B096A0182E0C80ED3
:102FA000D11C1296BC9012971396AC91B5E0CB163B
:102FB000D10440F0B282A38351834083D9016D9341
:102FC0007C930AC00E5F1F4FC301800F911FF90150
:102FD00091838083EB2DFA2FE114F10431F0D701B6
:102FE0001396FC93EE93129744C0F0936104E09320
:102FF00060043FC08D919C9111974817590708F4C0
:10300000AC017D0112960D90BC91A02DB3CF8091A3
:103010005E0490915F0488159905E1F446175707FF
:10302000C8F48091000190910101009741F48DB79F
:103030009EB74091040150910501841B950BE81740
:10304000F907C8F4F0935F04E0935E04F90171831B
:1030500060830FC0CB010E944B167C01009759F092
:10306000A801BE010E944718CE010E94E016C701C8
:1030700004C0CE0102C080E090E0CDB7DEB7EEE044
:103080000C942E1681E090E0F8940C946D18FB01DE
:10309000DC0102C001900D9241505040D8F70895D4
:1030A000DC0101C06D9341505040E0F70895FB01F1
:1030B000DC0101900D920020E1F70895FB01DC0195
:1030C0004150504048F001900D920020C9F701C0D6
:0E30D0001D9241505040E0F70895F894FFCF54
:1030DE0000006204800004080C1815A015C019FF2A
:1030EE001815A115C819FF1815AE19FF1815AF1927
:1030FE00FF1815AE15D5168015A8163F15D3160058
:10310E001540158D16141520160015A115C815DAC3
:10311E001612158116EF15D916A115DB1600152EF0
:10312E0015A415A619FF0001140A646432320009B1
:10313E003D000304289610080202800040000000A3
:10314E000000410E03100A0EE80DFC0D880E000063
:10315E00000072085E085708540851085008000015
:10316E0000004B0C830867060906564D4450565F07
:10317E00317C315F564D4450560D0A00564D445029
:10318E00455F003A323A007C005F564D4450450090
:0E319E0048656C6C6F20576F726C64210000E6
:107E0000112484B714BE81FFF0D085E080938100F7
:107E100082E08093C00088E18093C10086E0809377
:107E2000C20080E18093C4008EE0C9D0259A86E02C
:107E300020E33CEF91E0309385002093840096BBD3
:107E4000B09BFECF1D9AA8958150A9F7CC24DD24C4
:107E500088248394B5E0AB2EA1E19A2EF3E0BF2EE7
:107E6000A2D0813461F49FD0082FAFD0023811F036
:107E7000013811F484E001C083E08DD089C08234E0
:107E800011F484E103C0853419F485E0A6D080C0E4
:107E9000853579F488D0E82EFF2485D0082F10E0AE
:107EA000102F00270E291F29000F111F8ED06801E7
:107EB0006FC0863521F484E090D080E0DECF843638
:107EC00009F040C070D06FD0082F6DD080E0C81688
:107ED00080E7D80618F4F601B7BEE895C0E0D1E017
:107EE00062D089930C17E1F7F0E0CF16F0E7DF06D8
:107EF00018F0F601B7BEE89568D007B600FCFDCFD4
:107F0000A601A0E0B1E02C9130E011968C91119780
:107F100090E0982F8827822B932B1296FA010C0160
:107F200087BEE89511244E5F5F4FF1E0A038BF0790
:107F300051F7F601A7BEE89507B600FCFDCF97BE46
:107F4000E89526C08437B1F42ED02DD0F82E2BD052
:107F50003CD0F601EF2C8F010F5F1F4F84911BD097
:107F6000EA94F801C1F70894C11CD11CFA94CF0C13
:107F7000D11C0EC0853739F428D08EE10CD085E9AC
:107F80000AD08FE07ACF813511F488E018D01DD067
:107F900080E101D065CF982F8091C00085FFFCCF94
:107FA0009093C60008958091C00087FFFCCF809118
:107FB000C00084FD01C0A8958091C6000895E0E648
:107FC000F0E098E1908380830895EDDF803219F02E
:107FD00088E0F5DFFFCF84E1DECF1F93182FE3DFCA
:107FE0001150E9F7F2DF1F91089580E0E8DFEE27F6
:047FF000FF270994CA
:027FFE00040479
:0400000300007E007B
:00000001FF